:100000000C9476000C949E000C949E000C949E0020
:100010000C949E000C949E000C949E000C949E00E8
:100020000C949E000C949E000C949E000C949E00D8
:100030000C949E000C949E000C949E000C949E00C8
:100040000C943B080C949E000C94EE020C94C80295
:100050000C949E000C949E000C949E000C949E00A8
:100060000C9426040C949E0073656E6420746F20BB
:10007000746F6B656E697A65720053657475700094
:10008000436F6E74726F6C00466972737400000087
:100090000000240027002A0000000000250028009E
:1000A0002B0000000008000201000003040700000C
:1000B00000000000000000000000230026002900CE
:1000C00004040404040404040202020202020303FE
:1000D0000303030301020408102040800102040806
:1000E00010200102040810200A0F040F11241FBE63
:1000F000CFEFD8E0DEBFCDBF24E0A0E3B2E001C087
:100100001D92A83BB207E1F712E0A0E0B1E0E4EBFA
:10011000F5E202C005900D92A033B107D9F710E0C7
:10012000C5E7D0E004C02197FE010E94BC10C4378F
:10013000D107C9F70E9485080C94CD120C940000D9
:10014000CF92DF92EF92FF920F931F93CF93DF93A3
:100150006C017A018B01C0E0D0E0CE15DF0581F0A3
:10016000D8016D918D01D601ED91FC910190F08146
:10017000E02DC6010995892B11F02196EECF7E0165
:10018000C701DF91CF911F910F91FF90EF90DF900A
:10019000CF900895FC01538D448D252F30E0842F9E
:1001A00090E0821B930B541710F0CF96089501979F
:1001B0000895FC01918D828D981761F0828DDF0189
:1001C000A80FB11D5D968C91928D9F5F9F73928F4A
:1001D00090E008958FEF9FEF0895FC01918D828D3F
:1001E000981731F0828DE80FF11D858D90E008950C
:1001F0008FEF9FEF0895FC01918D228D892F90E064
:10020000805C9F4F821B91098F739927089588EB1B
:1002100093E00E94FB0021E0892B09F420E0822F6B
:100220000895FC01848DDF01A80FB11DA35ABF4FB3
:100230002C91848D90E001968F739927848FA689E5
:10024000B7892C93A089B1898C91837080648C9339
:10025000938D848D981306C00288F389E02D8081E8
:100260008F7D80830895EF92FF920F931F93CF931A
:10027000DF93EC0181E0888F9B8D8C8D981305C0F6
:10028000E889F989808185FD26C0F62E0B8D10E066
:100290000F5F1F4F0F731127E02E8C8DE8120CC0DB
:1002A0000FB607FCFACFE889F989808185FFF5CF81
:1002B000CE010E941101F1CF8B8DFE01E80FF11DDF
:1002C000E35AFF4FF0829FB7F8940B8FEA89FB89BE
:1002D000808180620AC09FB7F894EE89FF896083AD
:1002E000E889F98980818370806480839FBF81E081
:1002F00090E0DF91CF911F910F91FF90EF900895C3
:10030000CF93DF93EC01888D8823C9F0EA89FB89BC
:10031000808185FD05C0A889B9898C9186FD0FC0B3
:100320000FB607FCF5CF808185FFF2CFA889B98988
:100330008C9185FFEDCFCE010E941101E7CFDF91B7
:10034000CF91089580E090E0892B29F00E94070169
:1003500081110C940000089521E001C0220F6A95DC
:10036000EAF7DC011C962C931C971A965C934E932B
:100370001997ED91FC910484F585E02D60E00994D6
:10038000DC01ED91FC910684F785E02D41E00995B3
:1003900081E090E008950895089585ED8093BC0074
:1003A0008091BC0084FDFCCF10929403089540918D
:1003B0002503262F30E0240F311D21323105DCF4D6
:1003C000209194032430C9F4FC0180E090E086176A
:1003D00058F4309125032191DC01AB5FBC4FA30F92
:1003E000B11D2C930196F3CF80912503680F609384
:1003F000250380E0089581E0089582E0089508953E
:1004000008950895E0916D0380916C03E81730F42E
:10041000F0E0E85BFC4F808190E008958FEF9FEF64
:10042000089590916D0380916C03981750F4E92F13
:10043000F0E0E85BFC4F208130E09F5F90936D031C
:1004400002C02FEF3FEFC901089580916C0390E047
:1004500020916D03821B91090895CF92DF92EF9254
:10046000FF920F931F93CF93DF937C01CB018A01FF
:100470002091B703222389F0EB016B01C40ED51E36
:10048000CC15DD0569F06991D701ED91FC910190E2
:10049000F081E02DC7010995F3CF642F0E94D701A9
:1004A000C801DF91CF911F910F91FF90EF90DF90E6
:1004B000CF900895CF93DF931F92CDB7DEB76983B6
:1004C0002091B7032223D1F02091B503203240F0D0
:1004D00021E030E0FC013383228380E090E015C00E
:1004E0008091B603E82FF0E0EB56FC4F99819083A2
:1004F0008F5F8093B6038093B50305C061E0CE01A2
:1005000001960E94D70181E090E00F90DF91CF919A
:100510000895089580E090E008950E94A9120F9335
:100520001F93CF93DF93062F0F70423019F440E0F2
:10053000602F0EC0142FEC0170E084E07595679574
:100540008A95E1F7CE010E94F106412F602FCE017E
:10055000DF91CF911F910F910C94F106FC018485DE
:100560008823A9F0218532852115310519F46111FF
:1005700006C007C02130310521F4611102C0858712
:1005800001C015866585CF010E960C94510608951D
:100590001F920F920FB60F9211242F933F934F93F8
:1005A0005F936F937F938F939F93AF93BF93EF93DB
:1005B000FF9388EB93E00E941101FF91EF91BF91AF
:1005C000AF919F918F917F916F915F914F913F91EB
:1005D0002F910F900FBE0F901F9018951F920F92A2
:1005E0000FB60F9211242F938F939F93EF93FF9346
:1005F000E091C803F091C9038081E091CE03F091AE
:10060000CF0382FD12C090818091D1038F5F8F73E1
:100610002091D203821751F0E091D103F0E0E85429
:10062000FC4F958F8093D10301C08081FF91EF91A2
:100630009F918F912F910F900FBE0F901F90189543
:10064000DC01ED91FC910684F785E02D40E00994F2
:1006500061E00E9420038BE39FE10197F1F7089589
:100660000F931F93CF93DF93EC01423018F08C81EE
:1006700088608C834F836887222329F0413019F4E6
:100680008C8184608C8364E670E080E090E00E945E
:10069000DC076C8164FD31C0E881F9810684F7854F
:1006A000E02D42E063E0CE0109950BE416E4C801B9
:1006B0000197F1F7E881F9810684F785E02D42E0A2
:1006C00063E0CE010995C8010197F1F7E881F9814E
:1006D0000684F785E02D42E063E0CE01099583E5CD
:1006E00092E00197F1F7E881F9810684F785E02D22
:1006F00042E062E0CE01099516C06062CE010E9420
:1007000020038BE496E40197F1F76C816062CE01DF
:100710000E94200383E592E00197F1F76C8160620B
:10072000CE010E9420036C816062CE010E942003F2
:1007300084E08D836CE0CE010E942003CE010E94F4
:10074000280382E08E8366E0CE010E942003E881C8
:10075000F9810484F585E02D6FEFCE01DF91CF9113
:100760001F910F910994FF920F931F93CF93DF93E3
:10077000EC01162F042FF22E8B85888B0E946E07BA
:100780008889909194039111FCCF91E09093940308
:10079000909393032FEF2093920310929103109262
:1007A000900390936F0390916F03880F892B809330
:1007B0006F0380916E03813061F410926E0380911B
:1007C0006F038093BB008091BC0083FDF8CF85EC64
:1007D00001C085EE8093BC00809194038130E1F3E9
:1007E00080919103811103C09091910301C091E028
:1007F000E0E7F3E0A8E4B3E080E0891721F021917D
:100800002D938F5FFACF10926D0380936C0391E06C
:10081000811101C090E0998B85E594E00E9411025E
:100820008E878989882339F01F861C8260E0CE017B
:100830000E960E9451062F2D402F612FCE01DF9181
:10084000CF911F910F91FF900C9430031F920F9244
:100850000FB60F9211242F933F934F935F936F9393
:100860007F938F939F93AF93BF93EF93FF93809169
:10087000B900887F803609F49CC068F5883209F495
:100880005BC090F4803109F454C038F4882309F433
:10089000F6C0883009F44DC0F6C0883109F44CC068
:1008A000803209F45DC0EFC0803409F468C048F4B8
:1008B000803309F455C0883309F0E5C08093920372
:1008C000D8C0803509F44FC0883509F45DC088343C
:1008D00009F0D9C0D6C0883909F4C7C0A8F4883750
:1008E00009F467C038F4883609F463C0803709F426
:1008F00060C0C9C0883809F4B8C0803909F45FC045
:10090000803809F0C0C05BC0803B09F486C038F471
:10091000803A09F466C0883A09F47FC0B4C0803CCC
:1009200009F4A7C0883C09F4A4C0883B09F48AC034
:10093000AAC080916F0310C09091910380919003A1
:10094000981770F5E091910381E08E0F80939103E9
:10095000F0E0E059FC4F80818093BB0085EC86C0BD
:10096000809392038EC0E091910381E08E0F80937B
:1009700091038091BB00F0E0E059FC4F808390919F
:100980009103809190036EC0E091910381E08E0FFE
:10099000809391038091BB00F0E0E059FC4F80838D
:1009A0008091930381116DC081E080936E0384EA8E
:1009B00061C083E08093940310924703CFCF80916E
:1009C0004703803208F051C0E091470381E08E0F69
:1009D000809347038091BB00F0E0E95DFC4F80838A
:1009E000BDCF85EC8093BC001092940380914703A7
:1009F000803230F4E0914703F0E0E95DFC4F108273
:100A00006091470370E0E0916803F091690387E229
:100A100093E009951092470336C084E080939403D5
:100A20001092260310922503E0916A03F0916B0364
:100A3000099580912503811105C081E080932503EC
:100A400010920503E091260381E08E0F8093260328
:100A5000F0E0EB5FFC4F80818093BB009091260318
:100A600080912503981708F479CF85E88093BC001E
:100A70000AC085EC8093BC001092940304C01092CD
:100A800092030E94CD01FF91EF91BF91AF919F9191
:100A90008F917F916F915F914F913F912F910F9027
:100AA0000FBE0F901F9018950C9455100C944D107C
:100AB000009769F0FC0101900020E9F73197AF0140
:100AC000481B590BBC018DE694E00C94A00080E01B
:100AD00090E00895CF93DF93EC01809161049091B1
:100AE0006204009739F020916304309164042C175C
:100AF0003D07B8F4BE016F5F7F4F0E94E31100977E
:100B000091F09093620480936104D0936404C09345
:100B100063042091650430916604232B11F4FC01D9
:100B2000108281E001C080E0DF91CF910895CF93E2
:100B3000DF93EC010E946A05209161043091620408
:100B4000811113C02115310519F0C9010E945A11F4
:100B5000109262041092610410926604109265046F
:100B6000109264041092630409C0D0936604C09389
:100B700065046BE671E0C9010E94B71281E694E05A
:100B8000DF91CF9108958F929F92AF92BF920F9372
:100B90001F93CF93DF93CDB7DEB7A1970FB6F8942D
:100BA000DEBF0FBECDBF19A2423008F44AE08E016D
:100BB0000F5D1F4F842E912CA12CB12CA501940107
:100BC0000E949A10E62FB901CA0101501109EA30BA
:100BD00014F4E05D01C0E95CD801EC93232B242BD5
:100BE000252B61F7C8010E945805A1960FB6F8940D
:100BF000DEBF0FBECDBFDF91CF911F910F91BF9090
:100C0000AF909F908F900895682F70E080E090E003
:100C10004AE00C94C305CF93DF93CDB7DEB7289796
:100C20000FB6F894DEBF0FBECDBF80910701909143
:100C30000801A0910901B0910A018D839E83AF83C1
:100C4000B88780910B0190910C01A0910D01B0919A
:100C50000E0189839A83AB83BC8320917404233073
:100C600018F48FEF820F01C082E03091750490E09C
:100C7000FE01E80FF91F303121F4243011F46181B5
:100C800001C0658160688DE694E028960FB6F894FF
:100C9000DEBF0FBECDBFDF91CF910C9420030C942B
:100CA0005805CF93FC018381882309F46EC0962FE9
:100CB0006181609569236083C28181E08093B7037D
:100CC000C09386041092B6031092B50385E594E0B4
:100CD0000E945A029091B503913208F049C02091C8
:100CE00094032111FCCF82E08093940381E08093F0
:100CF00093038FEF8093920310929103909390034C
:100D0000A5E9B3E0E0E7F3E080E0981721F03D913A
:100D100031938F5FFACF10926F0380916F03CC0FE6
:100D2000C82BC0936F0380916E03813061F41092E1
:100D30006E0380916F038093BB008091BC0083FDA4
:100D4000F8CF85EC01C085EE8093BC0080919403C0
:100D50008230E1F3809192038F3F79F0809192038A
:100D6000803241F080919203803331F024E005C05D
:100D700021E003C022E001C023E01092B6031092EC
:100D8000B5031092B70330E002C020E030E081E00C
:100D900090E0232B11F080E090E0CF91089580E067
:100DA00090E00E94970581E694E008950F931F93C9
:100DB000CF93DF938C01C0E0D0E0F801EC0FFD1F72
:100DC0006491662341F08DE694E00E94C001892B76
:100DD00011F02196F2CFCE01DF91CF911F910F91AB
:100DE0000895EF92FF920F931F93CF938C01FC0114
:100DF00084E0C0E060FF02C09589C92B66958150F0
:100E000031968111F7CF413011F4F8014489F8018E
:100E10008585C82BC42B7801FEE0EF0EF11CF8018C
:100E200062896C2BC7010E945106F80162896095A6
:100E30006C23C701CF911F910F91FF90EF900C94FD
:100E4000510690E0FC01EE55FF4F2491FC01EC525D
:100E5000FF4F3491FC01E054FF4FE491EE2309F47D
:100E60003CC0222339F1233091F038F42130A9F02D
:100E7000223001F584B58F7D12C0273091F02830E3
:100E8000A1F02430B9F4809180008F7D03C080915F
:100E900080008F77809380000DC084B58F7784BDEC
:100EA00009C08091B0008F7703C08091B0008F7D22
:100EB0008093B000F0E0EE0FFF1FE856FF4FA591C2
:100EC000B4919FB7F894611104C08C913095382388
:100ED00002C0EC913E2B3C939FBF089510926D038E
:100EE00010926C031092B6031092B5031092940303
:100EF00081E08093930310926E0361E082E10E948F
:100F0000210761E083E10E942107E9EBF0E08081A5
:100F10008E7F808380818D7F808388E48093B8007A
:100F200085E48093BC008FEF91E090936B038093F6
:100F30006A0380E092E090936903809368030895C8
:100F4000CF93DF9390E0FC01EC52FF4F2491FC0122
:100F5000E054FF4F8491882361F190E0880F991F3E
:100F6000FC01E257FF4FC591D491FC01E856FF4FB9
:100F7000A591B491611109C09FB7F894888120951B
:100F800082238883EC912E230BC0623061F49FB7DB
:100F9000F8948881322F309583238883EC912E2B0F
:100FA0002C939FBF06C08FB7F894E8812E2B28831F
:100FB0008FBFDF91CF9108958F929F92AF92BF9292
:100FC000CF92DF92EF92FF926B017C010E94160894
:100FD0004B015C01C114D104E104F104F1F00E9461
:100FE0001608DC01CB0188199909AA09BB09883EBA
:100FF0009340A105B10570F321E0C21AD108E108C0
:10100000F10888EE880E83E0981EA11CB11CC11463
:10101000D104E104F10419F7DDCFFF90EF90DF90E8
:10102000CF90BF90AF909F908F9008953FB7F89466
:101030008091AE049091AF04A091B004B091B1043E
:1010400026B5A89B05C02F3F19F00196A11DB11D23
:101050003FBFBA2FA92F982F8827820F911DA11D5E
:10106000B11DBC01CD0142E0660F771F881F991F9B
:101070004A95D1F708951F920F920FB60F9211243F
:101080002F933F938F939F93AF93BF938091A90426
:101090009091AA04A091AB04B091AC043091AD043E
:1010A00023E0230F2D3720F40196A11DB11D05C0AB
:1010B00026E8230F0296A11DB11D2093AD04809355
:1010C000A9049093AA04A093AB04B093AC048091BC
:1010D000AE049091AF04A091B004B091B104019618
:1010E000A11DB11D8093AE049093AF04A093B004F2
:1010F000B093B104BF91AF919F918F913F912F9188
:101100000F900FBE0F901F901895CF93DF93CDB720
:10111000DEB72E970FB6F894DEBF0FBECDBF789422
:1011200084B5826084BD84B5816084BD85B58260EC
:1011300085BD85B5816085BD80916E00816080939D
:101140006E00109281008091810082608093810006
:101150008091810081608093810080918000816016
:10116000809380008091B10084608093B100809171
:10117000B00081608093B00080917A008460809399
:101180007A0080917A00826080937A0080917A0060
:10119000816080937A0080917A00806880937A00E1
:1011A0001092C100E091C803F091C90382E08083EE
:1011B000E091C403F091C5031082E091C603F09161
:1011C000C70380E180831092D003E091CC03F091BB
:1011D000CD0386E08083E091CA03F091CB03808148
:1011E00080618083E091CA03F091CB0380818860A5
:1011F0008083E091CA03F091CB0380818068808373
:10120000E091CA03F091CB0380818F7D80830E949F
:101210006E070E946E0720E042E060E18DE694E0F8
:101220000E94B3036FEF8DE694E00E94AE0261E08E
:101230008AE00E94A00761E089E00E94A00761E0C7
:1012400085E00E94A00761E086E00E94A00761E0BF
:1012500088E00E94A00761E087E00E94A00761E0AB
:1012600084E00E94A00761E08AE00E94210761E01B
:1012700089E00E94210761E085E00E94210761E08A
:1012800086E00E94210761E088E00E94210761E07A
:1012900087E00E94210761E084E00E94210761E06D
:1012A0008BE00E94A00760E08CE00E94A00760E055
:1012B0008DE00E94A0078FEF809304031092030338
:1012C0006EE181E090E00E94540564E670E080E009
:1012D00090E00E94DC076DE282E090E00E945405FD
:1012E00064E670E080E090E00E94DC0763E083E069
:1012F00090E00E94540564E670E080E090E00E9477
:10130000DC076CE084E090E00E94540564E670E045
:1013100080E090E00E94DC0766E085E090E00E94BB
:10132000540564E670E080E090E00E94DC0769E02C
:1013300086E090E00E94540564E670E080E090E072
:101340000E94DC076CE087E090E00E94540564E6B0
:1013500070E080E090E00E94DC0760E088E090E0D0
:101360000E94540564E670E080E090E00E94DC0793
:101370006CE189E090E00E94540564E670E080E052
:1013800090E00E94DC0765E18AE090E00E9454054D
:1013900064E670E080E090E00E94DC0766E48BE0A9
:1013A00090E00E94540564E670E080E090E00E94C6
:1013B000DC076EE18CE090E00E94540564E670E08A
:1013C00080E090E00E94DC0767E18DE090E00E9401
:1013D000540564E670E080E090E00E94DC0762E182
:1013E0008EE090E00E94540564E670E080E090E0BA
:1013F0000E94DC0767E08FE090E00E94540564E6FD
:1014000070E080E090E00E94DC0765E080E190E021
:101410000E94540564E670E080E090E00E94DC07E2
:1014200081E090E00E945605682F81E190E00E94E3
:10143000540564E670E080E090E00E94DC0783E001
:1014400090E00E945605682F82E190E00E945405CA
:1014500064E670E080E090E00E94DC0785E090E0C8
:101460000E945605682F83E190E00E94540564E6CF
:1014700070E080E090E00E94DC0786E090E00E944F
:101480005605682F84E190E00E94540564E670E000
:1014900080E090E00E94DC078BE090E00E9456051F
:1014A000682F85E190E00E94540564E670E080E0DA
:1014B00090E00E94DC0784E090E00E945605682FCF
:1014C00086E190E00E94540564E670E080E090E0E0
:1014D0000E94DC0787E090E00E945605682F87E1B4
:1014E00090E00E94540564E670E080E090E00E9485
:1014F000DC0788E090E00E945605682F88E190E0C4
:101500000E94540564E670E080E090E00E94DC07F1
:101510008DE090E00E945605682F8BE190E00E94DC
:10152000540564E670E080E090E00E94DC078EE005
:1015300090E00E945605682F8CE190E00E945405CF
:1015400064E670E080E090E00E94DC0789E090E0D3
:101550000E945605682F8DE190E00E94540564E6D4
:1015600070E080E090E00E94DC078AE090E00E945A
:101570005605682F8EE190E00E94540564E670E005
:1015800080E090E00E94DC078BE090E00E9456052E
:10159000682F8FE190E00E94540564E670E080E0DF
:1015A00090E00E94DC078CE090E00E945605682FD6
:1015B00080E290E00E94540564E670E080E090E0F4
:1015C0000E94DC078FE090E00E945605682F81E2C0
:1015D00090E00E94540564E670E080E090E00E9494
:1015E000DC0780E190E00E945605682F82E290E0DF
:1015F0000E94540564E670E080E090E00E94DC0701
:101600008FB7F8944091A9045091AA046091AB045B
:101610007091AC048FBF812C912C540183949E0156
:101620002F5F3F4F390188EB93E00E94FB001816B3
:1016300019060CF097C388EB93E00E94D900F82EAE
:101640003AE0831709F465C089831A820091650422
:10165000109166040F5F1F4FC8010E946A0588231E
:1016600089F0209161043091620480916504909129
:101670006604B301820F931F0E94B7121093660491
:10168000009365048091000181FFBBC38DE694E067
:101690000E94280388E890E00E94D60664EF71E07B
:1016A00080E090E00E94DC078091000143E6F412A4
:1016B00012C08460809300010E94CF068DE694E002
:1016C0000E94280380E890E00E94D60668EC70E053
:1016D00080E090E014C053E7F51213C08860809357
:1016E00000010E94CF068DE694E00E9428038AE75D
:1016F00090E00E94D60664EF71E080E090E00E94E6
:10170000DC07809100018D7F809300010E94CF064D
:1017100078C38DE694E00E94280387E491E00E945C
:101720004F060E940B06409165045091660460913B
:101730006104709162048DE694E00E94A0006CED5B
:1017400075E080E090E00E94DC07809100018C70E1
:1017500009F4F8C28DE694E00E94280388E690E040
:101760000E94D60664EF71E080E090E00E94DC0702
:101770000091650410916604C8019927009791F0C3
:1017800001978017910708F48C01609161047091B2
:101790006204A8018BE691E00E94BE12F801E559AF
:1017A000FE4F10828091000183FF11C08DE694E00E
:1017B0000E94280384E591E00E944F0668EE73E0E2
:1017C00080E090E00E94DC079DE0392E02C087E0B7
:1017D000382E6BE671E08BE392E00E94B71265E66B
:1017E00071E08BE392E00E9419108C01809100015E
:1017F00082FF5DC0E12CF12C432C512CE414F50444
:101800000CF04FC0E114F10491F4C8010E94FB0FE9
:10181000282E87E691E00E944F060E940B06822D3B
:101820000E9404068DE694E00E9428030AC065E643
:1018300071E080E090E00E9419108C010E94FB0F83
:10184000282E81E028120EC020910403D501C40186
:101850000E2C04C0880F991FAA1FBB1F0A94D2F731
:10186000822B10C0211011C0D501C4010E2C04C060
:10187000880F991FAA1FBB1F0A94D2F780959091D9
:10188000040389238093040308C099E0291205C04A
:1018900080910001806180930001EFEFEE1AFE0A53
:1018A000ADCF809100018B7F8061809300018DE638
:1018B00094E00E9428038CE691E00E944F060E946B
:1018C0000B068091000183FB882780F98D871E8697
:1018D0002D853E85B901330F880B990B4AE00E9494
:1018E000C30568EE73E080E090E00E94DC07809121
:1018F000000183FF27C2F3012CE011922A95E9F73A
:101900008DE694E00E94280389E791E00E944F064B
:1019100068EE73E080E090E00E94DC0723014C0C4D
:101920005D1CE32CF12CCE14DF040CF040C0C1147C
:10193000D10491F4C8010E94FB0F382E87E691E094
:101940000E944F060E940B06832D0E9404068DE61E
:1019500094E00E9428030AC065E671E080E090E010
:101960000E9419108C010E94FB0F382E8DE694E026
:101970000E942803832D0E94040668EE73E080E035
:1019800090E00E94DC07F20131922F018DE694E095
:101990000E942803832D0E9404066CE271E080E01F
:1019A00090E00E94DC07FFEFCF1ADF0ABCCF8DE684
:1019B00094E00E94280386E891E00E944F0664EFBD
:1019C00071E080E090E00E94DC07898180933A0218
:1019D0008A81809339028B81809338028C81809335
:1019E00037028D81809336026E818F81809335021C
:1019F0008885809334028985809333028A85809319
:101A000032028B85809331028C858093300281E194
:101A100090E00E94540564E670E080E090E00E944F
:101A2000DC076091300283E190E00E94540564E697
:101A300070E080E090E00E94DC076091360285E172
:101A400090E00E94540564E670E080E090E00E941F
:101A5000DC076091310287E190E00E94540564E662
:101A600070E080E090E00E94DC07609137028BE13B
:101A700090E00E94540564E670E080E090E00E94EF
:101A8000DC07609132028CE190E00E94540564E62C
:101A900070E080E090E00E94DC0760913A028DE106
:101AA00090E00E94540564E670E080E090E00E94BF
:101AB000DC07609135028EE190E00E94540564E6F7
:101AC00070E080E090E00E94DC07609139028FE1D5
:101AD00090E00E94540564E670E080E090E00E948F
:101AE000DC076091340280E290E00E94540564E6D5
:101AF00070E080E090E00E94DC076091380281E2B3
:101B000090E00E94540564E670E080E090E00E945E
:101B1000DC076091330282E290E00E94540564E6A3
:101B200070E080E090E00E94DC078DE694E00E9487
:101B3000280387E991E00E944F060E940B0681E18D
:101B400090E00E9456050E94040668EB7BE080E06E
:101B500090E00E94DC078DE694E00E94280383EA6F
:101B600091E00E944F060E940B0683E190E00E94E4
:101B700056050E94040668EB7BE080E090E00E943E
:101B8000DC078DE694E00E9428038CEA91E00E9435
:101B90004F060E940B0685E190E00E9456050E94C8
:101BA000040668EB7BE080E090E00E94DC078DE6B5
:101BB00094E00E94280388EB91E00E944F060E9467
:101BC0000B0687E190E00E9456050E94040668EB30
:101BD0007BE080E090E00E94DC078DE694E00E94CC
:101BE000280385EC91E00E944F060E940B068BE1D2
:101BF00090E00E9456050E94040668EB7BE080E0BE
:101C000090E00E94DC078DE694E00E94280388EDB6
:101C100091E00E944F060E940B068CE190E00E942A
:101C200056050E94040668EB7BE080E090E00E948D
:101C3000DC078DE694E00E9428038BEE91E00E9481
:101C40004F060E940B068DE190E00E9456050E940F
:101C5000040668EB7BE080E090E00E94DC078DE604
:101C600094E00E94280389EF91E00E944F060E94B1
:101C70000B068EE190E00E9456050E94040668EB78
:101C80007BE080E090E00E94DC078DE694E00E941B
:101C9000280387E092E00E944F060E940B068FE126
:101CA00090E00E9456050E94040668EB7BE080E00D
:101CB00090E00E94DC078DE694E00E94280385E115
:101CC00092E00E944F060E940B0680E290E00E9484
:101CD00056050E94040668EB7BE080E090E00E94DD
:101CE000DC078DE694E00E94280383E292E00E94E4
:101CF0004F060E940B0681E290E00E9456050E946A
:101D0000040668EB7BE080E090E00E94DC078DE653
:101D100094E00E94280389E292E00E944F060E940C
:101D20000B0682E290E00E9456050E94040668EBD2
:101D30007BE080E090E00E94DC0780910001877FDB
:101D4000809300010E94CF068DE694E00E94280354
:101D500088EB93E00E948001809100018260809373
:101D600000014FC0E090040380910303E81609F4DA
:101D700048C000E010E0F12CB701002E02C07595BC
:101D800067950A94E2F7E0910303A5019401002E00
:101D900004C0220F331F441F551F0A94D2F7DA01E3
:101DA000C90160FF05C02E2F282B2093030304C018
:101DB00080958E2380930303011103C061708AE034
:101DC00018C0013019F4617089E013C0023019F4B1
:101DD000617085E00EC0033019F4617086E009C0BF
:101DE000043019F4617088E004C0053021F461709A
:101DF00087E00E9421070F5F1F4F0730110509F090
:101E0000BBCF0E94A2010FCC80916104909162042B
:101E10000C945A111092BB031092BA0388EE93E00F
:101E2000A0E0B0E08093BC039093BD03A093BE03F9
:101E3000B093BF0323E131E03093B9032093B8039B
:101E400025EC30E03093C5032093C40324EC30E04C
:101E50003093C7032093C60320EC30E03093C903CE
:101E60002093C80321EC30E03093CB032093CA03C6
:101E700022EC30E03093CD032093CC0326EC30E00D
:101E80003093CF032093CE031092D1031092D2034C
:101E90001092D3031092D403109258041092570456
:101EA0008093590490935A04A0935B04B0935C040C
:101EB00085E291E09093560480935504109270044B
:101EC00010926F0487E391E090936E0480936D0409
:101ED00010927D048FEF80937C0410927B0410920B
:101EE0007E0487E2809378041092790410927A0439
:101EF000109277041092760484E080937F0482E04D
:101F00008093800481E08093810480E18093820447
:101F100080E28093830480E48093840480E880934B
:101F2000850440E050E063E08DE694E00E94AC015F
:101F300083E090E0909368048093670410926904B2
:101F400010926A0410926B0410926C0460E00E947C
:101F5000A00761E0809167040E94210760E081E1B1
:101F60000E94A007E5EEF0E0E491E0939B04E1ED30
:101F7000F0E0E491F0E0EE0FFF1FEA54FF4F85918F
:101F8000949190939D0480939C041092A6041092C7
:101F9000A8041092A704E6EAF4E08EE994E0129215
:101FA0008E179F07E1F78BE994E090938E0480935E
:101FB0008D0410928B0410928C041092870489E097
:101FC0008093880481E08093890480938A0410922E
:101FD0009A04109299041092620410926104109273
:101FE000640410926304109266041092650480E009
:101FF00090E00C949705FC0188279927E89421919B
:102000002032E9F3293010F02E30C8F32B3241F0A2
:102010002D3239F4689404C00E944510820F911D3E
:10202000219120532A30C0F31EF4909581959F4F43
:10203000089542EB54E00E941E100895FA01A19108
:10204000B081009719F41097E1F0CD01DC01CD01CA
:102050000D90002011F4C00113C0FB012191222337
:1020600019F02015D9F7F3CFFB012191201519F4B0
:102070001E92119606C02223C1F70D900020A1F7F1
:10208000D001FA01A193B08308957AE0979F902D33
:10209000879F802D910D11240895F999FECF92BD4F
:1020A00081BDF89A992780B50895262FF999FECF1A
:1020B0001FBA92BD81BD20BD0FB6F894FA9AF99A65
:1020C0000FBE019608952F923F924F925F926F92AA
:1020D0007F928F929F92AF92BF92CF92DF92EF92B8
:1020E000FF920F931F93CF93DF93CDB7DEB7CA1B39
:1020F000DB0B0FB6F894DEBF0FBECDBF09942A8864
:10210000398848885F846E847D848C849B84AA840B
:10211000B984C884DF80EE80FD800C811B81AA8198
:10212000B981CE0FD11D0FB6F894DEBF0FBECDBF63
:10213000ED010895A1E21A2EAA1BBB1BFD010DC0E3
:10214000AA1FBB1FEE1FFF1FA217B307E407F50767
:1021500020F0A21BB30BE40BF50B661F771F881F43
:10216000991F1A9469F760957095809590959B01D9
:10217000AC01BD01CF010895EE0FFF1F0590F49152
:10218000E02D09940F931F93CF93DF938230910535
:1021900010F482E090E0E091B604F091B70420E002
:1021A00030E0A0E0B0E0309719F140815181028128
:1021B000138148175907C8F08417950769F41097D9
:1021C00031F012960C93129713961C9327C000932C
:1021D000B6041093B70422C02115310519F0421737
:1021E000530718F49A01BD01EF01DF01F801DBCFBD
:1021F00021153105F9F0281B390B2430310580F405
:102200008A819B816115710521F0FB019383828393
:1022100004C09093B7048093B604FE01329644C084
:10222000FE01E20FF31F819391932250310939830C
:1022300028833AC02091B4043091B504232B41F493
:1022400020910301309104013093B5042093B4042C
:1022500020910101309102012115310541F42DB782
:102260003EB74091050150910601241B350BE091CA
:10227000B404F091B504E217F307A0F42E1B3F0B52
:102280002817390778F0AC014E5F5F4F24173507E8
:1022900048F04E0F5F1F5093B5044093B4048193F0
:1022A000919302C0E0E0F0E0CF01DF91CF911F9168
:1022B0000F910895CF93DF93009709F481C0FC013B
:1022C000329713821282A091B604B091B70410978E
:1022D00081F420813181820F931F2091B4043091C9
:1022E000B5042817390751F5F093B504E093B40409
:1022F00067C0ED0120E030E0CE17DF0740F44A81EF
:102300005B819E0141155105F1F0EA01F5CFD383C0
:10231000C28340815181840F951FC817D90759F492
:1023200088819981840F951F0296918380838A8189
:102330009B81938382832115310529F4F093B7049F
:10234000E093B6043DC0E901FB83EA8349915991CA
:10235000C40FD51FEC17FD0761F480819181840FB4
:10236000951F0296E90199838883828193819B83DB
:102370008A83E0E0F0E012968D919C91139700978C
:1023800019F0FD01DC01F7CF8D919C9111979D0112
:102390002E5F3F4F820F931F2091B4043091B504FC
:1023A0002817390769F4309729F41092B70410926E
:1023B000B60402C013821282B093B504A093B40491
:1023C000DF91CF910895A0E0B0E0E9EEF1E10C9447
:1023D0006710EC01009721F4CB010E94C210B4C039
:1023E000FC01E60FF71F9C0122503109E217F307A9
:1023F00008F4A8C0D9010D911C9111970617170771
:10240000B0F00530110508F49BC0C8010497861789
:10241000970708F495C002501109061B170B01938A
:1024200011936D937C93CF010E945A1189C05B0177
:10243000A01AB10A4C01800E911EA091B604B09171
:10244000B704612C712CE12CF12C109709F446C0D3
:102450008D919C911197A815B905B1F56C0142E0D9
:10246000C40ED11CCA14DB0478F14C018A189B08F5
:10247000640142E0C40ED11C1296BC9012971396D0
:10248000AC91B5E0CB16D10440F0B282A383918227
:102490008082D9016D937C9309C00E5F1F4F800F1E
:1024A000911FF90191838083EB2DFA2FE114F10440
:1024B00031F0D7011396FC93EE93129741C0F0933D
:1024C000B704E093B6043CC06816790608F43C01F2
:1024D0007D0112960D90BC91A02DB7CF8091B404D0
:1024E0009091B50488169906E1F466167706C8F44B
:1024F0008091010190910201009741F48DB79EB740
:102500004091050150910601841B950BE817F907CE
:10251000C8F4F093B504E093B404F90171836083C7
:102520000FC0CB010E94C2107C01009759F0A80196
:10253000BE010E94AE12CE010E945A11C70104C012
:10254000CE0102C080E090E0CDB7DEB7EEE00C94A3
:10255000831081E090E0F8940C94CD12FB01DC0133
:1025600002C001900D9241505040D8F70895FB01F0
:10257000DC0101900D920020E1F70895FB01DC01E0
:102580004150504048F001900D920020C9F701C021
:102590001D9241505040E0F7089510E0C5E7D0E0AB
:1025A00004C0FE010E94BC102196C637D107C9F7AE
:0425B000F894FFCFCD
:1025B400020000B804800000401454004010500091
:1025C4000000003301A000CA008001FB00D900ED27
:1025D40000000000005A022D028A020102250211A5
:1025E40002020200000000C001A0008A028902B3B6
:1025F40003AC01AE028F02496E7075745374726934
:102604006E673A00496E546F6B205365747570465B
:102614006C616720002C006A203D2000496E546FD5
:102624006B2020626F6F6C2000496E546F6B2053D7
:10263400657475702000496D706C656D656E7420ED
:10264400536574757020006461797320696E207617
:10265400656700686F7572207665670064796173D9
:1026640020696E20666C6F00686F75727320696EE6
:1026740020666C6F006D6178576174657254656D86
:1026840070437573746F6D006D696E576174657214
:1026940054656D70437573746F6D006D6178546526
:1026A4006D70437573746F6D006D696E54656D70F4
:1026B400437573746F6D006D617848756D6943750A
:1026C40073746F6D006D696E48756D6943757374CD
:1026D4006F6D006D61785068006D696E5068000020
:00000001FF
